:020000040000FA
:100000000C9413010C943B010C943B010C943B01A8
:100010000C943B010C943B010C943B010C943B0170
:100020000C943B010C943B010C943B010C943B0160
:100030000C943B010C943B010C943B010C943B0150
:100040000C94ED070C943B010C94BB070C949507A2
:100050000C943B010C943B010C943B010C943B0130
:100060000C943B010C943B01638253630001080034
:100070000604000100000000240027002A00000000
:100080000000250028002B000404040404040404D8
:100090000202020202020303030303030102040833
:1000A00010204080010204081020010204081020E2
:1000B0000000000800020100000304070000000027
:1000C0000000000045000082000040002048545419
:1000D000502F312E302035303320536572766963CE
:1000E0006520556E617661696C61626C650D0A43CD
:1000F0006F6E74656E742D547970653A20746578EE
:10010000742F68746D6C0D0A52657472792D416696
:100110007465723A203630300D0A0D0A3C68746DF1
:100120006C3E3C686561643E3C7469746C653E532A
:100130006572766963652054656D706F726172696E
:100140006C7920556E617661696C61626C653C2FDB
:100150007469746C653E3C2F686561643E3C626FF7
:1001600064793E3C68313E554153205052414B200A
:10017000494F543C2F68313E3C6272202F3E3C6810
:10018000333E526F736120417572616C6961204129
:100190006468616E6920533C2F68333E3C62722074
:1001A0002F3E3C68333E4E494D203A20563339327B
:1001B000303035353C2F68333E3C6272202F3E3C58
:1001C00068333E54544C203A203234204A756E69CC
:1001D00020323030313C2F68333E3C6272202F3E5B
:1001E0003C68333E456D61696C203A20726F7361E3
:1001F000617572616C69614073747564656E742EAB
:10020000756E732E61632E6964203C2F68333E3C0B
:100210006272202F3E3C2F626F64793E3C2F6874DF
:100220006D6C3E00320E11241FBECFEFD8E0DEBF52
:10023000CDBF11E0A0E0B1E0E2E7FDE102C0059032
:100240000D92AE38B107D9F724E0AEE8B1E001C0B5
:100250001D92A338B207E1F711E0C3E1D1E004C079
:100260002197FE010E94950EC231D107C9F70E9465
:1002700037080C94B70E0C940000CF93DF932091B5
:10028000E2032223C1F0FC0120812223A1F0C2EE6F
:10029000D3E0AEEDB3E09C012C5F3F4F89914191DB
:1002A0009D918427892339F4E217F307B9F781E098
:1002B000DF91CF91089580E0FBCFAF92BF92CF92B4
:1002C000DF92EF92FF920F931F93CF93DF936C0116
:1002D0007B018B01040F151FEB015E01AE18BF08F7
:1002E000C017D10759F06991D601ED91FC910190A9
:1002F000F081E02DC6010995892B79F7C501DF91C1
:10030000CF911F910F91FF90EF90DF90CF90BF9012
:10031000AF900895FC01538D448D252F30E0842F3C
:1003200090E0821B930B541710F0CF96089501971D
:100330000895FC01918D828D981761F0A28DAE0F0A
:10034000BF2FB11D5D968C91928D9F5F9F73928F91
:1003500090E008958FEF9FEF0895FC01918D828DBD
:10036000981731F0828DE80FF11D858D90E008958A
:100370008FEF9FEF0895FC01918D228D892F90E0E2
:10038000805C9F4F821B91098F739927089586EE99
:1003900093E00E94BB0121E0892B09F420E0822F29
:1003A000089580E090E0892B29F00E94C701811117
:1003B0000C9400000895FC01A48DA80FB92FB11D65
:1003C000A35ABF4F2C91848D90E001968F7399278B
:1003D000848FA689B7892C93A089B1898C91837069
:1003E00080648C93938D848D981306C00288F38962
:1003F000E02D80818F7D80830895EF92FF920F938F
:100400001F93CF93DF93EC0181E0888F9B8D8C8DC0
:1004100098131AC0E889F989808185FF15C09FB7B4
:10042000F894EE89FF896083E889F9898081837077
:10043000806480839FBF81E090E0DF91CF911F9126
:100440000F91FF90EF900895F62E0B8D10E00F5F47
:100450001F4F0F731127E02E8C8D8E110CC00FB61D
:1004600007FCFACFE889F989808185FFF5CFCE01B5
:100470000E94DB01F1CFEB8DEC0FFD2FF11DE35A54
:10048000FF4FF0829FB7F8940B8FEA89FB89808138
:100490008062CFCFCF93DF93EC01888D8823B9F0B2
:1004A000AA89BB89E889F9898C9185FD03C080817F
:1004B00086FD0DC00FB607FCF7CF8C9185FFF2CFFC
:1004C000808185FFEDCFCE010E94DB01E9CFDF9176
:1004D000CF91089590E0FC01E055FF4F2491FC017D
:1004E000E456FF4F3491FC01E857FF4FE491EE23AF
:1004F000C9F0222339F0233001F1A8F4213019F199
:10050000223029F1F0E0EE0FFF1FE258FF4FA591D6
:10051000B4918FB7F894EC91611126C030953E23C9
:100520003C938FBF08952730A9F02830C9F02430BC
:1005300049F7809180008F7D03C0809180008F7784
:1005400080938000DFCF84B58F7784BDDBCF84B507
:100550008F7DFBCF8091B0008F778093B000D2CF9A
:100560008091B0008F7DF9CF3E2BDACFCF93DF9310
:1005700090E0FC01E456FF4F249188579F4FFC0107
:1005800084918823D1F090E0880F991FFC01EC58EA
:10059000FF4FA591B491FC01E258FF4FC591D49152
:1005A00061110EC09FB7F8948C91E22FE0958E23D5
:1005B0008C932881E223E8839FBFDF91CF91089538
:1005C0008FB7F894EC91E22BEC938FBFF6CF3FB747
:1005D000F8948091960190919701A0919801B09123
:1005E000990126B5A89B05C02F3F19F00196A11DC2
:1005F000B11D3FBFBA2FA92F982F8827BC01CD016D
:10060000620F711D811D911D42E0660F771F881FCB
:10061000991F4A95D1F708952FB7F89460919201E8
:100620007091930180919401909195012FBF08954D
:100630008091FA019091FB01982789279827449788
:100640002091180230E044E0359527954A95E1F76E
:10065000220F331F220F331F821B930B97FF02C001
:1006600090E080E0089520910E0230910C023093CA
:100670000E0220930C0220910F0230910D02309354
:100680000F0220930D02EAEEF1E021A5820F911DE9
:1006900025A585A7662381F021A7892F9927319762
:1006A00021E0E63EF20789F710921C0210921D022B
:1006B00080E580931802089511A6EFCF0F931F9342
:1006C000CF93DF9370E066517E4F8A01075F1F4F23
:1006D000213029F0223031F48A010250110930E032
:1006E00020E003C000E010E09801EB01FA01E230E5
:1006F000F10558F0A991B991BA27AB27BA270A0F8B
:100700001B1F211D311D3297F2CFFA01EE7F6E0FB4
:100710007F1F4E175F0769F0FB01408150E070E0DA
:1007200060E0762F652F542F4427040F151F261FD6
:10073000371FA90166277727411551056105710506
:1007400019F022273327F1CF00951095E82FF0E01C
:10075000E651FE4F10830183DF91CF911F910F91DE
:100760000895EAEEF1E0108E118E80E4848B158AF4
:10077000868B20E044E150E06EE088E10C945E035B
:100780008EBD0DB407FEFDCF089561E080919A0102
:100790000E946A0278940895F89460E080919A012A
:1007A0000C946A020F931F93CF93DF93EC018B019C
:1007B0000E94CC032097B9F08AE30E94C0031EBCBC
:1007C000F801CE01019739F00DB407FEFDCF2EB52B
:1007D0001EBC2193F7CF2197C00FD11F0DB407FE88
:1007E000FDCF8EB58883DF91CF911F910F910C942F
:1007F000C5031F93CF93DF93182FC62FD42F0E94CA
:10080000CC038C2F8F71812B0E94C0038D2F0E94EF
:10081000C003DF91CF911F910C94C503CF93C82FD4
:10082000C076809190018C1799F043E06FE180EAE7
:100830000E94F903C09390014C2F50E085E055953C
:1008400047958A95E1F76FE180E8CF910C94F90321
:10085000CF910895CF93DF93C82FD62F0E940E0417
:100860004D2F6C2F80E4DF91CF910C94F903CF933F
:10087000DF93C82FD72F0E942A046D2F81E08C0FA1
:10088000DF91CF910C942A04CF93C82F0E940E04BD
:100890000E94CC038C2F8F710E94C00380E00E94C5
:1008A000C003C7FF03C080E00E94C003CEB50E9412
:1008B000C5038C2FCF910895CF93DF93EC0140E8CF
:1008C0006FE180E80E94F90340E86FE180EA0E944E
:1008D000F9034AE06CE180EA0E94F90360E07CE001
:1008E00082E00E943704BE01745F86E00E943704F4
:1008F00040E060E08AE70E94F9030E94CC03209761
:10090000B1F08AE70E94C0038091EA018EBDEBEE50
:10091000F1E0C651DE4FEC17FD0731F081910DB4C7
:1009200007FEFDCF8EBDF7CF0DB407FEFDCF0E94B1
:10093000C50348E06FE180E80E94F903D0E0C0E021
:100940008CE10E9444048A7029F42196C83E83E019
:10095000D807B1F78CE10E94440481FD03C0C83E72
:10096000D34039F448E06FE180EADF91CF910C94F5
:10097000F903DF91CF9108950F931F93CF93DF93E6
:100980008C018896CAEED1E0988B898B0E94B103C6
:100990001AAA1BAAA801445E5F4F22E06AE182E323
:1009A0000E945E03C801C696DF91CF911F910F91FF
:1009B0000C945C04CF93DF93EB01682F84ED0E94CD
:1009C0002A04BE0186ED0E9437048AEE0E94440488
:1009D00080FDFBCFDF91CF910895CF92DF92EF9210
:1009E000FF920F931F938634910568F120910D02B9
:1009F000233449F5C0901802D0901902E0901A02F1
:100A0000F0901B020091AC011091AD012091AE015C
:100A10003091AF01C016D106E206F306A1F4E4E07E
:100A2000F3E086519E4F9F012E5F3F4F41815081E1
:100A3000553319F45281651771F0F901E40FF11D76
:100A4000E817F90780F380E01F910F91FF90EF9076
:100A5000DF90CF90089581E0F7CFE0918E01F09183
:100A60008F019F012F5F3F4F30938F0120938E01A5
:100A700080830895FF920F931F93CF93DF93162FD8
:100A8000F42E052F0E942D05812F0E942D05CF2DBC
:100A9000D02F115020F089910E942D05FACFDF91BF
:100AA000CF911F910F91FF900895FC0101900020BC
:100AB000E9F73197AF01481B590BBC0186EE93E073
:100AC0000C945D018F929F92AF92BF92CF92DF9272
:100AD000EF92FF921F93CF93DF93CDB7DEB7A1972D
:100AE0000FB6F894DEBF0FBECDBFD62E172F0E94D3
:100AF0005505ED2CF12E10E08AE0882E912CA12CCA
:100B0000B12CF70121917F0130E050E040E019A2C3
:100B10006E01F1E2CF0ED11CCA01B901A501940109
:100B20000E94680E605DF60162936F012115310528
:100B30004105510589F7309719F0CF010E945505FD
:100B4000133029F06EE286EE93E00E94FD011F5FF4
:100B50001430B9F688E491E00E945505A1960FB6CD
:100B6000F894DEBF0FBECDBFDF91CF911F91FF90F4
:100B7000EF90DF90CF90BF90AF909F908F900895AF
:100B8000DC0196E0FB0101900D929A95E1F7089542
:100B9000CF93DF93EB0144E050E0BC0186E092E0AC
:100BA0000E94AA0E892B49F460E072E0CE010E94F7
:100BB000C00581E0DF91CF91089580E0FBCFBC01BB
:100BC0008AEE91E00E94C0056DEB71E080EF91E04C
:100BD0000C94C005DC0194E0FB0101900D929A9504
:100BE000E1F708950F931F93CF938C0182E491E076
:100BF0000E94DF05EAEEF1E088E08487C6E0C58761
:100C000048E050E06CE670E088EF91E00E945F0EF3
:100C1000EAE0F2E0DF011D92CA95E9F76DEB71E0C1
:100C200080E092E00E94C005B80180E192E00E945D
:100C3000EA0562EE73E086E092E00E94EA058AE24D
:100C400090E0CF911F910F910C945C0480EF91E0A4
:100C50000E94DF0564E072E088E092E00E94EA050D
:100C600062EE73E084E092E00E94EA050C94B10326
:100C7000262F206120931902643021F0009711F48F
:100C800081E090E061E00E9433031092FA0188E273
:100C90008093FB010E94260684E080931A02109242
:100CA0001B0222E04CE150E06AE182E30E945E0315
:100CB00086E390E00C945C04CF93DF93EB010E94F9
:100CC000DF05BE0188E092E00E94EA0562EE73E073
:100CD00084E092E0DF91CF910C94EA05EF92FF92CD
:100CE0000F931F93CF93DF938C01EAEEF1E086E13F
:100CF00091E0DF019C011D9221503040E1F780918D
:100D0000BC01C2E4D1E0833011F4C7EAD1E0CE01E6
:100D10000E943D01BE01882309F4ACC087EC91E03C
:100D20000E945C068881807F803E91F08881998155
:100D3000AA81BB818F3F9F4FAF4FBF4F49F044E027
:100D400050E0BE0183EC91E00E94AA0E892B31F4A1
:100D500062E471E08AEE91E00E94C00588E0809331
:100D6000F6011092F70149E050E064EC70E088EF82
:100D700091E00E945F0E1092FA0181E180930102DE
:100D800010920E0283E480930F0210920C0284E40E
:100D900080930D0210921002109212021092130210
:100DA00062E471E08AEE91E00E94C00581E08093E8
:100DB00014028093150286E0809316028091AC01A4
:100DC0009091AD01A091AE01B091AF018093180256
:100DD00090931902A0931A02B0931B02C091BC0118
:100DE000C33031F462EE73E080E292E00E94EA05E3
:100DF0006DEB71E080E392E00E94C00580E093E03B
:100E000090938F0180938E01E8E6F0E084910E9438
:100E10002D05E9E6F0E084910E942D05EAE6F0E078
:100E200084910E942D05EBE6F0E084910E942D054F
:100E300085E30E942D0581E00E942D0583E0C1110C
:100E400001C081E00E942D058DE30E942D0587E001
:100E50000E942D0581E00E942D058DEBE82E81E09A
:100E6000F82EC7E0C15049F0D7018D917D010E9455
:100E70002D05F8CF8DEC91E053CF809100018823B0
:100E800071F060E071E0FB0101900020E9F7BF0123
:100E90006150714040E051E08CE00E943A0501153C
:100EA000110559F0A80164E082E30E943A0547EA7F
:100EB00051E064E086E30E943A0587E30E942D0535
:100EC00083E00E942D0581E00E942D0583E00E94B1
:100ED0002D0586E00E942D058FEF0E942D05C09103
:100EE0008E01D0918F01C451D240CE014C96909387
:100EF000FA018093FB010E94B103CE010896909302
:100F0000100280931102AE01405F5F4F21E06AE161
:100F100088E20E945E03CE018A96DF91CF911F91F5
:100F20000F91FF90EF900C945C041F920F920FB6FC
:100F30000F9211242F933F934F935F936F937F935F
:100F40008F939F93AF93BF93EF93FF9386EE93E0BE
:100F50000E94DB01FF91EF91BF91AF919F918F9123
:100F60007F916F915F914F913F912F910F900FBEA5
:100F70000F901F9018951F920F920FB60F92112489
:100F80002F938F939F93EF93FF93E091F603F0914C
:100F9000F7038081E091FC03F091FD0382FD1BC00B
:100FA00090818091FF038F5F8F73209100048217DF
:100FB00041F0E091FF03F0E0EA51FC4F958F809300
:100FC000FF03FF91EF919F918F912F910F900FBE93
:100FD0000F901F9018958081F4CF1F920F920FB63B
:100FE0000F9211242F933F938F939F93AF93BF93AF
:100FF0008091920190919301A0919401B0919501FB
:101000003091910123E0230F2D3758F50196A11D52
:10101000B11D209391018093920190939301A0932D
:101020009401B09395018091960190919701A091C0
:101030009801B09199010196A11DB11D809396016F
:1010400090939701A0939801B0939901BF91AF91AC
:101050009F918F913F912F910F900FBE0F901F90F6
:10106000189526E8230F0296A11DB11DD2CFCF936C
:10107000DF9300D000D000D0CDB7DEB7789484B530
:10108000826084BD84B5816084BD85B5826085BD84
:1010900085B5816085BD80916E00816080936E0012
:1010A0001092810080918100826080938100809104
:1010B00081008160809381008091800081608093B5
:1010C00080008091B10084608093B1008091B00075
:1010D00081608093B00080917A00846080937A0070
:1010E00080917A00826080937A0080917A0081609A
:1010F00080937A0080917A00806880937A001092C1
:10110000C100E091F603F091F70382E08083E09163
:10111000F603F091F7031082E091F203F091F303EC
:101120001082E091F403F091F50380E18083109246
:10113000FE03E091FA03F091FB0386E08083E091E7
:10114000F803F091F903808180618083E091F803D6
:10115000F091F903808188608083E091F803F09139
:10116000F903808180688083E091F803F091F903AE
:1011700080818F7D80838BE491E00E94550588E417
:1011800091E00E9455051092E70187E390E0C12CA1
:10119000D12C7601C3940097C1F0FC0123E0F595B2
:1011A000E7952A95E1F7E556FE4F282F2770B701FE
:1011B000A60104C0440F551F661F771F2A95D2F75A
:1011C0002081242B20830197E6CF68E271E08DEB2C
:1011D00091E00E94C00584EF91E09093A301809379
:1011E000A2010CB406FC25C061E08AE00E94B602B0
:1011F00061E08AE00E946A0261E08BE00E94B60230
:1012000061E08DE00E94B60260E08CE00E94B602D0
:1012100061E08BE00E946A0260E08BE00E946A025B
:1012200060E08DE00E946A0280E58CBD8DB5816032
:101230008DBD8AE080939A0161E00E94B6020E940F
:10124000C5034FEF60E08FEF0E94F9030E94E702B1
:101250006B017C0192E0892E912CA12CB12C0E9473
:10126000E7026C197D098E099F09683E734081056C
:101270009105A8F328EEC20E23E0D21EE11CF11C5A
:101280008A9489288A288B2829F0812C912C540152
:101290008394E5CF0E94CC038DE10E94C00380E0DF
:1012A0000E94C0031EB50E94C503112399F370E08C
:1012B00060E088E00E94370470E060E08CE00E940B
:1012C00037046FEF7BE08AE00E94370460E07CE047
:1012D00084E00E9437046FEF71E186E00E943704DA
:1012E00066E774E084E10E94DA0461EB88E30E941F
:1012F0002A046FE370E388E20E94370469EF77EF16
:1013000080E30E94370461E080EC0E942A0442E3FB
:1013100062EC80E80E94F90362E17CE086EC0E94C6
:10132000370462E184EC0E942A046CED75E08AECDB
:101330000E9437046091BD0184EE0E942A046091EE
:10134000BE0185EE0E942A046091BF0182EE0E94D8
:101350002A046091C00183EE0E942A046091C101B9
:1013600080EE0E942A046091C20181EE0E942A044C
:1013700060E071E080E10E94DA048FE10E940E04D7
:1013800040EC6BE180E80E94F90344E06FE180E803
:101390000E94F90382E70E944404863008F08F5FC0
:1013A000811108C087E591E00E94550588E491E02D
:1013B0000E9455051092E70164E271E082EE93E02D
:1013C0000E94EA051092E5011092E40181E0809309
:1013D000E60160E271E080EE91E00E94EA05E2EE53
:1013E000F3E02EED33E043EC51E09191D9018D9182
:1013F0009D018095892BDA018D93AD01B3E0E63E26
:10140000FB0799F762EE73E08CE791E00E946205BA
:1014100060EE71E082E891E00E9462056BED71E0A0
:1014200088E891E00E94620514E0E12EFF24F39425
:1014300003E0702EECE26E2EF0E65F2EA8E73A2E67
:10144000B6E04B2E8091A601882379F06091A4012B
:101450007091A5016115710509F030C16FEF7BE056
:101460008CE00E9437041092A60189E30E94440494
:1014700010E000E08823C1F16091A4017091A50102
:1014800080E00E943704BE016F5F7F4F86E090E0EE
:101490000E94D20389819A819093A5018093A4012F
:1014A0008D819E818C010078112787FF12C08B816E
:1014B0009C8104970091A2011091A3010150110990
:1014C0008017910708F48C016AEE71E0C8010E9450
:1014D000D203F801E651FE4F1082F092A60140E4DB
:1014E0006EE180E80E94F9038091E701882369F0AA
:1014F0008091BC01823009F4EAC008F0E2C0882380
:1015000009F46BC1813009F488C10115110509F096
:1015100015C28091E601857029F18091E4019091D6
:10152000E501892BF9F461E184ED0E942A0461E070
:1015300082ED0E942A048AEE0E94440480FDFBCFC3
:1015400060E082ED0E942A0489ED0E94440482FF3B
:1015500009C080EE91E00E94F2058091E60188606A
:101560008093E6018091E4019091E50101969093CA
:10157000E5018093E4018091DF01813009F069C0C9
:101580008091E60181FF65C082E08093DF01809158
:101590002F018F5F80932F01182F1F7185ED91E030
:1015A0000E943D0165ED71E0882309F4C4C187EC18
:1015B00091E00E945C0608E00093F6011092F701AA
:1015C00049E050E064EC70E088EF91E00E945F0E2B
:1015D0006092FB01409201020E94B10310920E0240
:1015E00010920F028BE080930C0210930D02E0E149
:1015F000F2E0DF011D920A95E9F780912E018093B8
:1016000012028D5F80932E015092180282E0809327
:10161000190270921A0210921B0210921C02109270
:101620001D0210921E0210921F0280932002E0926F
:1016300021028093220286E28093230222E040E28C
:1016400050E06AE182E30E945E038AE390E00E9438
:101650005C048BED91E00E943D01882371F0809144
:10166000DA0181110AC08091D901811106C08BED88
:1016700091E00E94F205F092D90185ED91E00E947F
:101680003D01882371F08091D40181110AC08091BD
:10169000D301811106C085ED91E00E94F205F09220
:1016A000D30180E090E0892B09F4CCCE0E94C701E1
:1016B000882309F4BFCE0E940000BCCE615071099E
:1016C000CFCE833009F455C0843009F01ECF65E0D9
:1016D000C8010E94ED04882309F4CAC08091AB01BF
:1016E000811108C088E30E944404682F6E7F88E35C
:1016F0000E942A0464E272E082EE93E00E94EA050E
:10170000E4E0F3E0C80186519E4F4C016F0192E086
:10171000C90ED11C21808081863009F4FBC008F0FD
:10172000BEC0813009F4ECC0833009F4EFC0F6018B
:10173000E20DF11DE815F90548F30E940C036093D2
:10174000B4017093B5018093B6019093B701809175
:10175000E001882359F01092E5011092E401F09223
:10176000E60160EE71E0CB010E94EA057092BC01D7
:10177000CCCE8090B8019090B901A090BA01B09001
:10178000BB012FEF82169206A206B20609F4BDCE67
:101790000E940C032091B4013091B5014091B60133
:1017A0005091B701621B730B840B950B681579057B
:1017B0008A059B0508F4A9CE82EE93E00E946E068E
:1017C000E092BC010E940C036093B0017093B101E0
:1017D0008093B2019093B30198CE0E940C03609362
:1017E000AC017093AD018093AE019093AF01E2EE36
:1017F000F3E0DF012E2D1D922A95E9F790E080E0BD
:101800000E946E0688E30E944404682F616088E3AA
:101810000E942A04F092BC01D5CF62E0C8010E9468
:10182000ED04882329F164E272E0CE0101960E9462
:10183000EA05E4E0F3E0C80186519E4FBF016E5F08
:101840007F4F21813081363361F487EA91E00E9435
:10185000EA05CE0101960E946E0682E08093BC01EB
:10186000B1CFFB01E20FF11DE817F90738F3F1CF13
:101870000E940C032091B0013091B1014091B2015E
:101880005091B301621B730B840B950B613177424E
:101890008105910508F439CE1092BC0136CE8A3309
:1018A00031F08F3F09F449CF833309F040CF1092D4
:1018B000B8011092B9011092BA011092BB01F60161
:1018C000C601049620E030E0A9016191542F432F16
:1018D000322F2227260F311D411D511D8E179F07C4
:1018E000A1F72F3FAFEF3A074A075A07B9F4209301
:1018F000B8013093B9014093BA015093BB0117CF9F
:10190000B6018EED93E00E94EA0511CFB60180EE9C
:1019100091E0F9CFB6018BED91E0F5CFA8EEB3E001
:101920000E948A0E6093B8017093B9018093BA0146
:101930009093BB01FCCE8DEC91E03BCE09321105BA
:1019400008F4AFCE8091F601883009F0AACE8091DC
:10195000F701863009F03EC144E050E062EE73E0EA
:1019600080E192E00E94AA0E892B09F09ACE809124
:10197000FF01813029F580EF91E00E94DF05109290
:10198000FE0182E08093FF0160E072E08AE092E075
:101990000E94C0056DEB71E080E092E00E94C005FE
:1019A00066E072E080E192E00E94EA0562EE73E098
:1019B00086E092E00E94EA058AE290E00E945C04E0
:1019C0008091E60183FF0DC01091FF01123049F4B0
:1019D0006DEC71E080EE91E00E94C80581111093DA
:1019E000E6018091DA01811110C08091D90188232C
:1019F00061F067EC71E08BED91E00E94C8058823EF
:101A000021F0F092DA011092D9018091D401811174
:101A100048CE8091D301882309F443CE67EC71E06E
:101A200085ED91E00E94C805882309F43ACEF09232
:101A3000D4011092D30135CE0633110508F431CE0E
:101A4000863009F02ECE80910E028B3009F04CC00A
:101A500044E050E065ED71E084E092E00E94AA0E5F
:101A6000892B09F01ECE1091190212FF04C085E0E7
:101A70008093DF0116CE0E9418032091DF012230EF
:101A8000F9F4212F20711271123179F460E090E0A5
:101A900080E00E94380688E1809319027092DF018D
:101AA00090E080E00E94BC04FCCDF092DF01019642
:101AB000222311F090E080E064E00E943806F1CD2E
:101AC000253009F4EECD10FF0AC0233009F4E9CD2A
:101AD00069E001960E9438064092DF01E2CD60E0A5
:101AE000009709F4DECDE9CF8111DBCD80910F02A3
:101AF000803509F0D6CDD0901902D1FE35C01092B4
:101B0000FA016092FB010E942606B2E1B09319022D
:101B100060E081E090E00E94330310921002109286
:101B2000110280912E0180931202109213028D5F98
:101B300080932E0182E080932002E092210285E0D2
:101B400080932202109223025092180280931A026C
:101B500030921B0222E040E250E06AE182E30E9400
:101B60005E038AE390E07BC0D4FE9BCD0E94180305
:101B70009093E9018093E801892B31F1809118025B
:101B800090E024E0959587952A95E1F7880F991FB5
:101B9000880F991F82960817190708F482CD47E528
:101BA00051E06DEC70E080E292E00E945F0E60E038
:101BB0008091E8019091E9010E94380629E1209383
:101BC000190286E591E06ECFD0FE6BCD60E090E02B
:101BD00080E073CF0932110509F463CD811161CD25
:101BE0008091F801853409F05CCD44E050E062EE6C
:101BF00073E088E092E00E94AA0E892BA9F044E0ED
:101C000050E063EC71E088E092E00E94AA0E892B1C
:101C100059F044E050E062E471E088E092E00E9414
:101C2000AA0E892B09F03DCD80910102813009F087
:101C300003CF80910C02883009F033CD0E94260634
:101C400010920C0280910E02883F28F090910F02B2
:101C50009F5F90930F02885F80930E02C8010E94DD
:101C60005C041FCDE6EEF3E01382128288EE93E06F
:101C7000A0E0B0E084839583A683B78384E391E0FA
:101C80009183808385EC90E09587848784EC90E055
:101C90009787868780EC90E0918B808B81EC90E039
:101CA000938B828B82EC90E0958B848B86EC90E01A
:101CB000978B868B118E128E138E148E0895FB01D6
:101CC000DC0102C005900D9241505040D8F70895B4
:101CD000A1E21A2EAA1BBB1BFD010DC0AA1FBB1F30
:101CE000EE1FFF1FA217B307E407F50720F0A21BA2
:101CF000B30BE40BF50B661F771F881F991F1A940F
:101D000069F760957095809590959B01AC01BD0138
:101D1000CF0108950E949B0EA59F900DB49F900D3A
:101D2000A49F800D911D11240895EE0FFF1F0590B3
:101D3000F491E02D0994A29FB001B39FC001A39F2D
:101D4000700D811D1124911DB29F700D811D1124F4
:101D5000911D0895FB01DC0104C08D910190801953
:101D600021F441505040C8F7881B990B0895F8940E
:101D7000FFCF41726475696E6F2D454E4332386AEC
:101D800036302D3030000000000000000000000060
:101D90000000C0A82B37C0A82BC87469692D30314A
:101DA0000A0100000000FD015D018A014A02BB0139
:101DB0009901AD01FFFFFFFFFFFF0D0A000A5B6203
:101DC00061636B536F6F6E5D004661696C65642083
:101DD000746F206163636573732045746865726E08
:101DE000657420636F6E74726F6C6C65720049501D
:101DF0003A20200047573A202000444E533A200012
:107800000C94343C0C94513C0C94513C0C94513CE1
:107810000C94513C0C94513C0C94513C0C94513CB4
:107820000C94513C0C94513C0C94513C0C94513CA4
:107830000C94513C0C94513C0C94513C0C94513C94
:107840000C94513C0C94513C0C94513C0C94513C84
:107850000C94513C0C94513C0C94513C0C94513C74
:107860000C94513C0C94513C11241FBECFEFD8E036
:10787000DEBFCDBF11E0A0E0B1E0ECE9FFE702C060
:1078800005900D92A230B107D9F712E0A2E0B1E065
:1078900001C01D92AD30B107E1F70E942D3D0C945F
:1078A000CC3F0C94003C982F959595959595959582
:1078B000905D8F708A307CF0282F295A8091C0000B
:1078C00085FFFCCF9093C6008091C00085FFFCCF60
:1078D0002093C6000895282F205DF0CF982F809127
:1078E000C00085FFFCCF9093C6000895EF92FF92F1
:1078F0000F931F93EE24FF2487018091C00087FD22
:1079000017C00894E11CF11C011D111D81E4E8164B
:1079100082E4F8068FE0080780E0180770F3E09132
:107920000401F091050109958091C00087FFE9CF1E
:107930008091C6001F910F91FF90EF9008950E94D3
:10794000763C982F8091C00085FFFCCF9093C600B5
:1079500091362CF490330CF09053892F089597555D
:10796000892F08951F930E949F3C182F0E949F3CCF
:107970001295107F810F1F9108951F93182F882350
:1079800021F00E94763C1150E1F71F9108951F935A
:10799000182F0E94763C803249F0809103018F5F5E
:1079A000809303018530C1F01F9108958091C0003C
:1079B00085FFFCCF84E18093C6008091C00085FFE5
:1079C000FCCF1093C6008091C00085FFFCCF80E102
:1079D0008093C6001F910895E0910401F091050184
:1079E00009951F9108950E94763C803241F0809164
:1079F00003018F5F80930301853081F008958091AA
:107A0000C00085FFFCCF84E18093C6008091C00058
:107A100085FFFCCF80E18093C6000895E0910401CA
:107A2000F09105010995089540E951E08823A1F0FE
:107A30002D9A28EE33E0FA013197F1F721503040CA
:107A4000D1F72D9828EE33E0FA013197F1F7215064
:107A50003040D1F7815061F708953F924F925F9285
:107A60006F927F928F929F92AF92BF92CF92DF924E
:107A7000EF92FF920F931F93CF93DF93000080E16B
:107A80008093C4001092C50088E18093C10086E015
:107A90008093C2005098589A259A81E00E94143D24
:107AA00024E1F22E9EE1E92E85E9D82E0FE0C02ECA
:107AB00010E1B12EAA24A394B1E49B2EA6E58A2E50
:107AC000F2E57F2EE0E26E2E79E4572E63E5462E36
:107AD00050E5352E0E94763C8033B1F18133B9F107
:107AE000803409F46FC0813409F476C0823409F41B
:107AF00085C0853409F488C0803531F1823521F1A3
:107B0000813511F1853509F485C0863509F48DC0BC
:107B1000843609F496C0843709F403C1853709F423
:107B200072C1863709F466C0809103018F5F80932C
:107B30000301853079F6E0910401F0910501099582
:107B40000E94763C803351F60E94F33CC3CF0E94E2
:107B5000763C803249F78091C00085FFFCCFF092DF
:107B6000C6008091C00085FFFCCF9092C600809136
:107B7000C00085FFFCCF8092C6008091C00085FFC9
:107B8000FCCF7092C6008091C00085FFFCCF609250
:107B9000C6008091C00085FFFCCF5092C600809146
:107BA000C00085FFFCCF4092C6008091C00085FFD9
:107BB000FCCF3092C6008091C00085FFFCCFB09210
:107BC000C60088CF0E94763C863808F4BDCF0E945C
:107BD000763C0E94F33C7ECF0E94763C803809F4CC
:107BE0009CC0813809F40BC1823809F43CC1883942
:107BF00009F48FC080E00E94C73C6CCF84E10E94F2
:107C0000BD3C0E94F33C66CF85E00E94BD3C0E94D3
:107C1000F33C60CF0E94763C809306010E94763C44
:107C2000809307010E94F33C55CF0E94763C80333D
:107C300009F41DC183E00E94BD3C80E00E94C73C66
:107C400049CF0E94763C809309020E94763C809343
:107C5000080280910C028E7F80930C020E94763C79
:107C6000853409F415C18091080290910902892B8D
:107C700089F000E010E00E94763CF801E85FFE4FDA
:107C800080830F5F1F4F80910802909109020817AF
:107C9000190788F30E94763C803209F045CF809125
:107CA0000C0280FF01C16091060170910701660F0F
:107CB000771F7093070160930601A0910802B091AD
:107CC00009021097C9F0E8E0F1E09B01AD014E0F09
:107CD0005F1FF999FECF32BD21BD819180BDFA9A17
:107CE000F99A2F5F3F4FE417F50799F76A0F7B1F4B
:107CF00070930701609306018091C00085FFFCCF5F
:107D0000F092C6008091C00085FFFCCFB092C60003
:107D1000E1CE83E00E94C73CDDCE82E00E94C73CFA
:107D2000D9CE0E94763C809309020E94763C8093D3
:107D300008028091060190910701880F991F909386
:107D40000701809306010E94763C853409F4A6C0A1
:107D500080910C028E7F80930C020E94763C8032D0
:107D600009F0B8CE8091C00085FFFCCFF092C6002C
:107D7000609108027091090261157105B9F140E046
:107D800050E080910C02A82FA170B82FB27011C0E2
:107D9000BB2309F45CC0E0910601F0910701319624
:107DA000F0930701E09306014F5F5F4F46175707B7
:107DB000E8F4AA2369F3F999FECF209106013091E6
:107DC000070132BD21BDF89A90B58091C00085FFB2
:107DD000FCCF9093C6002F5F3F4F30930701209355
:107DE00006014F5F5F4F4617570718F38091C00099
:107DF00085FDE5CE8091C00085FFF8CFE0CE81E023
:107E00000E94C73C67CE0E94763C803209F08CCE3F
:107E10008091C00085FFFCCFF092C6008091C00029
:107E200085FFFCCFE092C6008091C00085FFFCCFAB
:107E3000D092C6008091C00085FFFCCFC092C600E2
:107E40008091C00085FFFCCFB092C60043CEE09188
:107E50000601F091070194918091C00085FFFCCF4D
:107E60009093C6009CCF80E10E94C73C33CE0E9415
:107E7000763C0E94763C182F0E94763C112309F430
:107E800083C0113009F484C08FE00E94C73C22CE29
:107E900080910C02816080930C02E5CE80910C02EF
:107EA000816080930C0259CF809107018823880F4D
:107EB000880B8A2180930B02809106019091070123
:107EC000880F991F90930701809306018091080203
:107ED00080FF09C080910802909109020196909359
:107EE000090280930802F894F999FECF1127E091D6
:107EF0000601F0910701C8E0D1E08091080290915D
:107F00000902103091F40091570001700130D9F34B
:107F100003E000935700E89500915700017001308D
:107F2000D9F301E100935700E89509901990009169
:107F3000570001700130D9F301E000935700E89534
:107F40001395103498F011270091570001700130FB
:107F5000D9F305E000935700E895009157000170B0
:107F60000130D9F301E100935700E895329602976A
:107F700009F0C7CF103011F00296E5CF112480919F
:107F8000C00085FFB9CEBCCE8EE10E94C73CA2CD19
:0E7F900085E90E94C73C9ECDF894FFCF80008B
:00000001FF
